:020000020000FC
:0400000039C044C1FE
:1000080069C068C067C066C065C064C063C062C0BC
:1000180061C0AF91BF910F931F932F933F934F935D
:100028005F936F937F93BF93AF930895AF91BF9101
:100038007F916F915F914F913F912F911F910F91F8
:10004800BF93AF93089502E205BF88950895F0E045
:10005800E0E612812381368147815285638514A3A6
:1000680025A336A347A350A761A7089502E205BFB9
:1000780070E08FEFE72EF82E0FE50DBF02E00EBF00
:1000880000E001BB0FEF02BB00E40BBF0FEF07BBA3
:1000980008BB0FEF04BB002705BB03EC09BF00E05A
:1000A8000DBD0CBD0AE70BBD02E10ABDE5D2ECEEC1
:1000B800F7E050E003D3E0E6F0E001E0BED003E073
:1000C800A4D000E021E033E040E050E07894BBDFCA
:1000D800FECF08952F9300E023FD27C003E02F9162
:1000E8002F9327FD03E026FD05E025FD06E024FD0E
:1000F80007E0F0E0E0E645D0F0E0E4E642D0F0E0EA
:10010800E8E63FD0F0E0E4E73CD0F0E0E8E739D0BB
:10011800F0E0ECE736D0F0E0ECE63ED019F075D030
:100128002F9118952F91220F2F9300E00EBDEAEA28
:10013800F8E050E0C3D22F9118956BDF1081218130
:100148003281438154816581360F251F141F108326
:10015800218332836BDF08955CDF10812181328136
:1001680043815481658140955095609563955E1DE6
:100178004E1D360F251F141F10832183328356DF2F
:1001880008951081218132814381410F3E1D2E1D2A
:1001980021833283438308951081218132814381F1
:1001A80010951395410F3F1D2F1D218332834383E3
:1001B800222319F4332309F4442308952ADF47DF5F
:1001C800F0E0E4E8E1D11081218113832483E0E6A3
:1001D800F0E010E024E0002321F00A95E20FF11F7F
:1001E800FACF12812381F0E0E4E80F9300810383C2
:1001F8000181048300E000830F911183228382D15F
:1002080055D150E463D212DF089503DFF0E0E0E651
:1002180010E024E0002321F00A95E20FF11FFACF45
:10022800018112812381F0E0E4E8008311832283B5
:10023800BCD150E44BD2FADE08954F930F931F932D
:10024800EF93FF9313E001E0019300E00193019322
:1002580001931A95C1F701E0019300E001930AE2C6
:10026800019300E3019316E001E0019300E001939C
:10027800019301931A95C1F7FF91EF911F910F9187
:100288004F91089553E060E070E410B313FF08C085
:1002980014FF26C015FF21C016FF1CC017FF71C030
:1002A80021FD09D022FD11D023FD0FD020FD01D062
:1002B800189543950895EEE4F8E050E0FFD100E08A
:1002C8000FBD0CE00EBD24E0089503E09EDF2F7003
:1002D800206808955A95639576955A95639576950D
:1002E80021FD40D022FD43D023FD48D020FD01D080
:1002F80018958FDE4F93F0E0E4E7442339F01F931D
:1003080014E0E10FFE1D1F914A95C9F7FF93EF9383
:10031800662319F41EE020E108C06A9519F410E07C
:100328002CE303C06A9510E021E0318142815381BA
:10033800F0E0E0E83083418352830F9300E00383C9
:100348000F9114832583F9DE108121813281EF9189
:10035800FF911183228333835F9105E0050F55DFF9
:1003680065DE0895052F4DD003E04FDF089505E0C1
:10037800060F60E04ADF2F70272B0895062F1EDF37
:10038800089523FD07D022FD1CD021FD35D020FD86
:1003980022E018952F935BDEE4E8F0E0F5D00F93A8
:1003A8001F932F9300E01081218100831183228302
:1003B8002F911F910F91F9D005E050E487D12F912B
:1003C80008952F9327FD1AC026FD00E025FD01E0C2
:1003D80024FD02E0E0E6F0E01F932F9310E024E014
:1003E800002321F00A95E20FF11FFACF0083048B56
:1003F8002F911F912F910895000008952F91220F9A
:100408000895EF93FF932F933F934F93ECE6F0E01B
:100418003EE040E15EE060E10A9519F0350F461FC5
:10042800FBCF20E02183328343834F913F912F916B
:10043800FF91EF9108953F934F938F9380E04F0D75
:100448003F1D8F1D409530958095240F131F081F61
:100458008F914F913F9108953F934F935F935F0D15
:100468004F1D3F1D509540953095250F141F031FB4
:100478005F914F913F910895240F131F08958F9313
:1004880080E0240F131F081F8F9108951F932F9347
:100498003F93108121813281330F221F111F108356
:1004A800218332833F912F911F910895B2DD74818A
:1004B80085817083818354E010E02AE012832383CE
:1004C80047D0128123811083218304810F935A9589
:1004D80099F71F912F913F914F9100E3100F200F33
:1004E800300F400F408331830CE20283238314834F
:1004F80005E2058300E206830783008700E00187A1
:1005080095DD089586DD08E2068300E010E020E02E
:100518003381448150E060E070E080E0B7DF221F63
:10052800111F001F88DF90F48E1D078306810A952E
:1005380039F006830781880F771F661F551FEECF96
:10054800508361837483858371DD089598DFEDCFCF
:1005580060DD108121813281438150E060E070E0EC
:1005680000E1440F331F58F00A9521F0660F551F1C
:10057800771FF7CF52836383748358DD0895620F22
:10058800511F90F77395F0CF44DD1081218132819E
:10059800438154816581240F131F260F151F108373
:1005A800218344DD08950895089533DDFF93EF9383
:1005B8000081118122810F930EE0038300E10483FF
:1005C800A1DF0F9130813F9331813F933EE0328329
:1005D80030E13383BDDF348142815F9353813CDF57
:1005E8005F910083118322830F9300E003830CE360
:1005F800048388DF0F9130813F9331813F9330E04E
:1006080032833CE33383A4DF348142815F93538197
:1006180023DF5F910083118322831F932F930F9110
:10062800F7E0E0E6E00FFE1DE00FFE1D15912591B5
:100638000F910F91F7E0E0E6E00FFE1DE00FFE1DC1
:10064800359145910F910F91F7E0E0E6E00FFE1D1F
:10065800E00FFE1D559165910F91EF91FF910AE30F
:1006680050836183028333834483058316832783FE
:1006780000E00087DBDC0895CCDC4CD000E011E022
:1006880022E033E048E30AD048E008D041E006D051
:1006980046E004D04CE002D0C9DC089505BB4BD03D
:1006A80025BB49D048BB05BB08954F93A4E8B0E0EB
:1006B80045914D934423E1F74F9108955F9350E09E
:1006C800F4DFE4E8F0E002D05F9108950F931F9300
:1006D8002F933F936F93FF93EF9300E011E022E095
:1006E80033E005BB25BB27D060E8560F58BB05BBD8
:1006F80022D04191442331F035BB1DD048BB15BBF6
:100708001AD0F7CFEF91FF916F913F912F911F91E1
:100718000F9108951F932F933F931DEF139539F071
:1007280020E82395D9F330E03395D9F3FDCF3F91F5
:100738002F911F9108951F932F933F931EEF1395A9
:1007480039F020EF2395D9F330E03395D9F3FDCF75
:100758003F912F911F91089530303031303230332E
:100768003034303530363037303830393130313157
:10077800313231333134313531363137313831393D
:100788003230323132323233323432353236323735
:10079800323832393330333133323333333433351B
:1007A8003336333733383339343034313432343301
:1007B80034343435343634373438343935303531E7
:1007C80035323533353435353536353735383539CD
:1007D80036303631363236333634363536363637C5
:1007E8003638363976312E33000054696D65204C21
:1007F80065667400546F74616C2054696D650000FF
:10080800427574746F6E207072657373656400004E
:10081800427574746F6E20302070726573736564EE
:100828000000427574746F6E2031207072657373A6
:1008380065640000427574746F6E203220707265B2
:1008480073736564000054696D6572732061726525
:1008580020776F726B696E670000427574746F6EF3
:100868002034207072657373656400004275747477
:100878006F6E203520707265737365640000427571
:1008880074746F6E2036207072657373656400002F
:10089800427574746F6E2037207072657373656467
:1008A8000000436F756E74696E672073746F7065AE
:1008B8006400686F75720000686F75727300526526
:0408C80061647900EE
:00000001FF
