:020000020000FC
:0400000026C0FAC05C
:0200080052C0E4
:020018004AC0DC
:02001C0048C0DA
:1000200046C000E205BF88950895F0E0E0E6118142
:10003000228134814581578160851787208B318BE0
:10004000428B538B648B089508950895089570E052
:100050008FEF0FE50DBF02E00EBFF0E0E0E000E043
:1000600001BB0FEF02BB00E40BBF0FEF07BB08BBE8
:100070000FEF04BB002705BB0FEF09BF00E00DBD6C
:100080000CBD00E10BBD00E10ABD83D2EEEDF6E050
:1000900050E0BFD2E0E6F0E001E08FD003E071D0A5
:1000A00000E021E050E07894BCDFFECF08952F936C
:1000B0009FD200E00DBD0CBD22FD1FC000E10BBDB5
:1000C00000E10ABD2F912F9327FD03E026FD00E0FC
:1000D00025FD01E024FD02E0F0E0E0E621D0F0E0C3
:1000E000E3E61ED0F0E0E6E61BD0F0E0E9E620D043
:1000F00069F050E046D02F91189500E00EBD78D2FF
:10010000ECE9F7E050E085D22F91189500E00EBDA4
:100110006FD2E2E5F8E050E07CD22F91220F1895E3
:10012000108121813281310F271F2183328308956D
:1001300010812181328110951395310F281F218361
:10014000328308952F9371DFF0E0EFE69CD11081A8
:10015000218112832383E0E6F0E010E023E0002316
:1001600021F00A95E20FF11FFACF11812281F0E010
:10017000EFE61083218310D1DFD050E06AD22F91B7
:100180000895EF93FF931F932F93F0E0E0E610E0C4
:1001900023E0002321F00A95E20FF11FFACF11812D
:1001A0002281F0E0EFE61083218388D150E051D224
:1001B0002F911F91FF91EF9108950F9301E000831C
:1001C00000E00183028301E0038300E004830583F0
:1001D00001E0068300E0078300871A950F910F93D3
:1001E00001870AE2028700E303870F9104870AE28E
:1001F000058700E30687089543E050E060E410B30C
:1002000013FF08C014FF23C015FF1EC016FF19C03E
:1002100017FF32C020FD05D021FD0ED022FD0CD0ED
:100220001895E6D1E0E4F7E050E0F3D100E00FBD2F
:1002300005E00EBD220F089503E0A3DF2F702068B4
:1002400008954A95539566954A955395669520FD70
:1002500005D021FD08D022FD0CD01895042F3DD0EB
:1002600003E08FDF0895052F50E08BDF2F70262BE2
:100270000895052F67DF089520FD2AD022FD03D0C1
:1002800021FD0CD018952F93D0DEEFE6F0E0FBD0E7
:1002900015D105E050E0DDD12F9108952F9327FD72
:1002A00019C026FD00E025FD01E024FD02E0E0E6A6
:1002B000F0E01F932F9310E023E0002321F00A9534
:1002C000E20FF11FFACF00832F911F912F91089514
:1002D000000008952F91220F0895EF93FF933F930D
:1002E0004F93E9E6F0E03EE040E15EE060E10A9530
:1002F00019F0350F461FFBCF318342834F913F9159
:10030000FF91EF9108953F934F93480F381F409509
:100310003095240F131F4F913F910895240F131F01
:1003200008951F932F9310812181220F111F108395
:1003300021832F911F9108950F931F932F933F9324
:100340004F935F9354E010E02AE01283238371D02F
:10035000128123811083218304810F935A9599F789
:100360001F912F913F914F9100E3100F200F300FFD
:10037000400F408331830CE202832383148305E220
:10038000058300E20683078300875F914F913F91C9
:100390002F911F910F9108950F931F932F933F93C8
:1003A0004F935F936F931081218100E0008301835D
:1003B0003281438150E060E000E1220F111FA3DF92
:1003C00080F463950A9519F0660F551FF6CF508398
:1003D00061836F915F914F913F912F911F910F9189
:1003E00008959CDF15C00F931F932F933F934F9356
:1003F0005F936F9300E110E020E03281438150E091
:1004000060E08FDF221F111F7EDF88F4671F571FF8
:100410000A9519F0660F551FF4CF508361836F91D1
:100420005F914F913F912F911F910F91089576DF2A
:10043000EFCF0F931F932F933F934F935F936F9340
:100440007F93108121813281438150E060E070E030
:1004500000E1440F331F90F00A9521F0660F551FFD
:10046000771FF7CF5283638374837F916F915F917E
:100470004F913F912F911F910F910895620F511F3E
:1004800058F77395E9CF1F932F933F934F935F9343
:100490006F93108121813281438154816581240FC2
:1004A000131F260F151F108321836F915F914F91AA
:1004B0003F912F911F910895089508950F931F93D1
:1004C0002F933F934F935F936F93FF93EF9310811D
:1004D0002181108321830EE0028300E1038383DF07
:1004E00000810F9301810F93A4DF328143810BDFE1
:1004F0001083218300E002830CE3038374DF008117
:100500000F9301810F9395DF32814381FCDE1083CD
:10051000218300E0028301E0038365DF00810F9304
:1005200001810F9386DF32814381EDDE0F91F7E089
:10053000E8EBE00FF71FE00FF71F159125910F91E2
:100540000F91F7E0E8EBE00FF71FE00FF71F359191
:1005500045910F910F91F7E0E8EBE00FF71FE00FE7
:10056000F71F559165910F91EF91FF910AE3508329
:10057000618302833383448305831683278300E0EA
:1005800000876F915F914F913F912F911F910F9134
:1005900008950F931F932F933F934F937ED000E0C6
:1005A00011E022E033E005BB25BB88D048E348BB1F
:1005B00005BB84D025BB82D048E048BB05BB7ED0BC
:1005C00025BB7CD041E048BB05BB78D025BB76D0AD
:1005D00046E048BB05BB72D025BB70D04CE048BBA1
:1005E00005BB6CD04F913F912F911F910F910895B2
:1005F0000F931F932F933F934F9325BB5FD042E000
:1006000048BB05BB5BD04F913F912F911F910F913C
:1006100008950F931F932F933F936F9300E011E082
:1006200022E033E005BB25BB49D060E8560F58BB3C
:1006300005BB44D04591442331F035BB3FD048BB86
:1006400015BB3CD0F7CF6F913F912F911F910F9128
:1006500008950F931F932F933F936F93FF93EF93FF
:1006600000E011E022E033E005BB25BB27D060ECC1
:10067000560F58BB05BB22D04191442331F035BB06
:100680001DD048BB15BB1AD0F7CFEF91FF916F91EA
:100690003F912F911F910F9108951F932F933F9397
:1006A0001DEF139539F020E82395D9F330E0339509
:1006B000D9F3FDCF3F912F911F9108951F932F9351
:1006C0003F931EEF139539F020EF2395D9F330E0D7
:1006D0003395D9F3FDCF3F912F911F910895763136
:1006E0002E32000054696D65204C65667400546FAD
:1006F00074616C2054696D650000427574746F6E8E
:1007000020707265737365640000427574746F6E57
:1007100020302070726573736564000042757474D4
:100720006F6E2031207072657373656400004275CE
:1007300074746F6E2032207072657373656400008C
:1007400054696D6572732061726520776F726B6991
:100750006E670000427574746F6E2034207072658D
:10076000737365640000427574746F6E2035207079
:100770007265737365640000427574746F6E203621
:1007800020707265737365640000427574746F6ED7
:10079000203720707265737365640000436F756E57
:1007A00074696E672073746F70656400686F75722A
:1007B0000000686F75727300303030313032303382
:1007C00030343035303630373038303931303131FF
:1007D00031323133313431353136313731383139E5
:1007E00032303231323232333234323532363237DD
:1007F00032383239333033313332333333343335C3
:1008000033363337333833393430343134323433A8
:10081000343434353436343734383439353035318E
:100820003532353335343535353635373538353974
:10083000363036313632363336343635363636376C
:1008400036383639000030313233343536373839BE
:080850000000526561647900AB
:00000001FF
