:020000020000FC
:0400000011C0E9C082
:020008003CC0FA
:0200180034C0F2
:02001C0032C0F0
:1000200030C0089570E08FEF0FE50DBF02E00EBF06
:10003000F0E0E0E000E001BB0FEF02BB00E40BBF2B
:100040000FEF07BB08BB0FEF04BB002705BB0FEF8B
:1000500009BF00E00DBD0CBD00E10BBD00E10ABD14
:10006000E5D2E8E7F7E050E021D3E0E6F0E001E098
:1000700091D003E073D000E021E050E07894FFCF0E
:1000800008952F9302D300E00DBD0CBD00E10BBD20
:1000900000E10ABD27FD03E026FD02E025FD01E0A9
:1000A00024FD00E05BD0F0E0E0E60BD0F0E0E3E61A
:1000B00008D0F0E0E6E605D0F0E0E9E60AD02F91BE
:1000C0001895108121813281310F271F21833283BE
:1000D000089510812181328110951395310F281FC9
:1000E000218332830895EF93FF931F932F933F93C0
:1000F0004F935F936F93F0E0E0E610E023E011810F
:10010000228134814581518562851787208B318B0F
:10011000428B538B648BF0E0EFE604D21081218197
:1001200012832383E0E6F0E010E023E0002321F0D7
:100130000A95E20FF11FFACF11812281F0E0EFE67C
:10014000108321831CD150E0D1D26F915F914F91E8
:100150003F912F911F91FF91EF910895EF93FF939E
:100160001F932F93F0E0E0E610E023E0002321F05E
:100170000A95E20FF11FFACF11812281F0E0EFE63C
:1001800010832183EAD150E0B1D22F911F91FF91CA
:10019000EF9108950F9301E0008300E00183028353
:1001A00001E0038300E00483058301E0068300E0AF
:1001B000078300870F910F9301870AE2028700E30C
:1001C00003870F9104870AE2058700E306870895F5
:1001D00000E00FBD089510B313FF09D014FF22D023
:1001E00015FF36D016FF4AD017FF5DD018950F9334
:1001F0001F9320FD07D021FD10D022FD0ED01F91AE
:100200000F91089542D2EAEDF7E050E04FD200E0BE
:100210000FBD05E00EBD220F089503E09FDF2F7094
:10022000206808951F9320FD06D021FD0BD022FDEC
:100230000ED01F9108950F9303E072D003E08EDF7C
:100240000F91089500E08ADF2F70206408950895CB
:100250001F9320FD06D021FD0BD022FD0ED01F9153
:1002600008950F9302E05CD003E078DF0F910895CA
:1002700001E074DF0FE02F70206208951F9320FDCE
:1002800006D021FD0BD022FD0DD01F9108950F93B4
:1002900001E046D003E062DF0F91089501E05EDFE8
:1002A0002F70206108951F93F0D1E4E2F8E050E050
:1002B000FDD1158526851787208B0A9589F4118134
:1002C000228134814581578160851787208B318B4E
:1002D000428B538B648BEFE0F0E024D13DD11EC004
:1002E0000A9531F441815281428B538B2FD016C035
:1002F0000A9539F444815581428B538B27D02BD1F9
:100300000DC00A9539F447815085428B538B1ED01E
:1003100022D104C00A951AD01ED100C01F910895A1
:10032000EF93FF933F934F93E9E6F0E03EE040E127
:100330005EE060E10A9519F0350F461FFBCF31836F
:1003400042834F913F91FF91EF9108953F934F93D7
:10035000480F381F40953095240F131F4F913F9140
:100360000895240F131F08951F932F931081218147
:10037000220F111F108321832F911F9108950F9336
:100380001F932F933F934F93FF93EF9310E02AE037
:10039000128323839FD012812381108321830481C0
:1003A0000F9310E02AE01283238394D012812381DB
:1003B0001083218304810F9310E02AE012832383AA
:1003C00089D0128123811083218304810F9310E04F
:1003D0002AE0128323837ED012812381108321831C
:1003E00004810F931F912F913F914F91E0EDF8E021
:1003F000E10FF71F1591E0EDF8E0E20FF71F2591EF
:10040000E0EDF8E0E30FF71F3591E0EDF8E0E40FE1
:10041000F71F4591EF91FF914083318322830CE2D6
:100420000383148305E205834F913F912F911F9120
:100430000F9108950F931F932F933F934F935F93C3
:100440006F931081218100E0008301833281438119
:1004500050E060E000E1220F111F78DF98F40F9365
:1004600000E8500F0F910A9519F056956795F3CF54
:10047000508361836F915F914F913F912F911F91B5
:100480000F9108956EDF15C00F931F932F933F9325
:100490004F935F936F9300E110E020E0328143813E
:1004A00050E060E061DF221F111F50DF88F4671FFA
:1004B000571F0A9519F0660F551FF4CF50836183BB
:1004C0006F915F914F913F912F911F910F910895DF
:1004D00048DFEFCF0F931F932F933F934F935F937B
:1004E0006F937F93108121813281438150E060E0DE
:1004F00070E000E1440F331F90F00A9521F0660F81
:10050000551F771FF7CF5283638374837F916F9159
:100510005F914F913F912F911F910F910895620F1D
:10052000511FEBCF1F932F933F934F935F936F9385
:10053000108121813281438154816581240F131FF1
:10054000240F131F108321836F915F914F913F916F
:100550002F911F910895089508950F931F932F933E
:100560003F934F935F936F93FF93EF93108121819C
:100570000EE0028300E1038387DF00810F93018196
:100580000F93A8DF32814381E1DE1083218300E0F5
:1005900002830CE3038378DF00810F9301810F93C3
:1005A00099DF32814381D2DE1083218300E0028310
:1005B00001E0038369DF00810F9301810F938ADFDC
:1005C00032814381C3DE0F91F8E0E2E4E00FF71FD0
:1005D000E00FF71F159125910F910F91F8E0E2E4DC
:1005E000E00FF71FE00FF71F359145910F910F9125
:1005F000F8E0E2E4E00FF71FE00FF71F5591659177
:100600000F91EF91FF910AE350836183028333835B
:10061000448305831683278300E000876F915F91F1
:100620004F913F912F911F910F9108950F931F9319
:100630002F933F934F937ED000E011E022E033E010
:1006400005BB25BB88D048E348BB05BB84D025BB90
:1006500082D048E048BB05BB7ED025BB7CD041E0C2
:1006600048BB05BB78D025BB76D046E048BB05BB70
:1006700072D025BB70D04CE048BB05BB6CD04F910D
:100680003F912F911F910F9108950F931F932F93D7
:100690003F934F9325BB5FD042E048BB05BB5BD087
:1006A0004F913F912F911F910F9108950F931F9399
:1006B0002F933F936F9300E011E022E033E005BBFE
:1006C00025BB49D060E8560F58BB05BB44D04591C7
:1006D000442331F035BB3FD048BB15BB3CD0F7CFEE
:1006E0006F913F912F911F910F9108950F931F9339
:1006F0002F933F936F93FF93EF9300E011E022E07D
:1007000033E005BB25BB27D060EC560F58BB05BBBB
:1007100022D04191442331F035BB1DD048BB15BBDD
:100720001AD0F7CFEF91FF916F913F912F911F91C9
:100730000F9108951F932F933F931DEF139539F059
:1007400020E82395D9F330E03395D9F3FDCF3F91DD
:100750002F911F9108951F932F933F931EEF139591
:1007600039F020EF2395D9F330E03395D9F3FDCF5D
:100770003F912F911F91089576312E3100005469D9
:100780006D65204C65667400546F74616C2054690B
:100790006D650000427574746F6E207072657373BE
:1007A00065640000427574746F6E2030207072654D
:1007B000737365640000427574746F6E203120702D
:1007C0007265737365640000427574746F6E2032D5
:1007D0002070726573736564000054696D6572738F
:1007E0002061726520776F726B696E6700004275D9
:1007F00074746F6E203420707265737365640000CA
:10080000427574746F6E2035207072657373656401
:100810000000427574746F6E2036207072657373B9
:1008200065640000427574746F6E203720707265C5
:10083000737365640000686F75720000686F75728D
:100840007300303030313032303330343035303680
:100850003037303830393130313131323133313471
:100860003135313631373138313932303231323257
:10087000323332343235323632373238323933303D
:10088000333133323333333433353336333733382C
:10089000333934303431343234333434343534361B
:1008A0003437343834393530353135323533353401
:1008B00035353536353735383539363036313632E7
:1008C0003633363436353636363736383639000034
:0C08D0003031323334353637383900000F
:00000001FF
