:020000020000FC
:040000003DC020C11E
:020008006AC0CC
:0200180062C0C4
:02001C0060C0C2
:100020005EC0AF91BF910F931F932F933F934F9358
:100030005F936F937F93BF93AF930895AF91BF91F9
:100040007F916F915F914F913F912F911F910F91F0
:10005000BF93AF93089500E205BF88950895F0E03F
:10006000E0E6118122813481458157816085138FBB
:10007000248F358F468F578F60A3089570E08FEFE0
:10008000E72EF82E0FE50DBF02E00EBF00E001BB2A
:100090000FEF02BB00E40BBF0FEF07BB08BB0FEF76
:1000A00004BB002705BB0FEF09BF00E00DBD0CBD71
:1000B00000E10BBD00E10ABDA8D2EAEEF6E050E097
:1000C000C6D2E0E6F0E001E093D003E071D000E0BA
:1000D00021E033E050E07894BEDFFECF08952F9307
:1000E00000E00DBD0CBD23FD22C000E10BBD00E111
:1000F0000ABD2F912F9327FD03E026FD00E025FD8B
:1001000001E024FD02E0F0E0E0E619D0F0E0E3E6F3
:1001100016D0F0E0E6E613D0F0E0E9E618D021F0E2
:1001200050E046D02F9118952F91220F2F9300E089
:100130000EBDE8EAF7E050E08AD22F9118951081C1
:1001400021813281310F2E1D218332830895108148
:100150002181328110951395310F2F1D2183328318
:1001600008952F937CDFF0E0EBE7D7D11081218158
:1001700012832383E0E6F0E010E023E0002321F087
:100180000A95E20FF11FFACF11812281F0E0EBE72F
:100190000F93008103830181048300E000830F91AA
:1001A0001183228378D14BD150E459D22F910895F5
:1001B000EF93FF931F932F93F0E0E0E610E023E02E
:1001C000002321F00A95E20FF11FFACF118122815D
:1001D000F0E0EBE71F9310E010831F91118322835F
:1001E000ADD150E43CD22F911F91FF91EF91089532
:1001F0000F931F93EF93FF9313E001E0019300E04F
:10020000019301931A95C9F7FF91EF911F910F91F7
:100210000F9301870AE2028700E303870F910487A7
:100220000AE2058700E3068700E00787008B018B61
:10023000028B038B048B058B068B078B008F018F42
:10024000028F089543E050E060E410B313FF08C04C
:1002500014FF43C015FF3EC016FF39C017FF52C040
:1002600021FD26D022FD2ED023FD2CD020FD01D053
:1002700018953A9509F433E01F932F933F93EFE6D7
:10028000F0E013E0E10F20E0F21F3A95D9F7118179
:100290002281EBE7F0E00F9300E000830F911183E0
:1002A00022834CD150E4DBD13F912F911F910895CF
:1002B000ECE4F7E050E0CBD100E00FBD05E00EBD6F
:1002C000220F089503E074DF2F70206808954A9587
:1002D000539566954A955395669521FD05D022FD67
:1002E00008D023FD0CD01895042F4DD003E060DF1B
:1002F0000895052F50E05CDF2F70262B0895052F01
:1003000030DF089521FD3AD023FD05D022FD1CD019
:1003100020FD18D018952F93A2DEEBE7F0E0FDD07A
:100320000F931F932F9300E010812181008311838D
:1003300022832F911F910F9101D105E050E48FD1BD
:100340002F910895239508952F9327FD19C026FD19
:1003500000E025FD01E024FD02E0E0E6F0E01F936F
:100360002F9310E023E0002321F00A95E20FF11F04
:10037000FACF00832F911F912F91089500000895C7
:100380002F91220F0895EF93FF933F934F93E9E648
:10039000F0E03EE040E15EE060E10A9519F0350FE3
:1003A000461FFBCF318342834F913F91FF91EF91E5
:1003B00008953F934F934F0D3F1D40953095240F67
:1003C000131F4F913F9108953F934F938F9380E078
:1003D0004F0D3F1D8F1D409530958095240F131FA5
:1003E000081F8F914F913F9108953F934F935F93D3
:1003F0005F0D4F1D3F1D509540953095250F141FE3
:10040000031F5F914F913F910895240F131F08958B
:100410008F9380E0240F131F081F8F9108951F935F
:100420002F933F93108121813281330F221F111F9F
:100430001083218332833F912F911F910895F1DD25
:10044000748185817083818354E010E02AE01283F7
:10045000238347D0128123811083218304810F934A
:100460005A9599F71F912F913F914F9100E3100FEB
:10047000200F300F400F408331830CE2028323832F
:10048000148305E2058300E206830783008700E00A
:100490000187D4DD0895C5DD08E2068300E010E0A1
:1004A00020E03381448150E060E070E080E0B7DF1D
:1004B000221F111F001F88DF90F48E1D0783068105
:1004C0000A9539F006830781880F771F661F551F2D
:1004D000EECF5083618374838583B0DD089598DF08
:1004E000EDCF9FDD108121813281438150E060E0BA
:1004F00070E000E1440F331F58F00A9521F0660FB9
:10050000551F771FF7CF52836383748397DD089558
:10051000620F511F90F77395F0CF83DD1081218119
:100520003281438154816581240F131F260F151FCB
:100530001083218383DD08950895089572DDFF936C
:10054000EF930081118122810F930EE0038300E17C
:100550000483A1DF0F9130813F9331813F933EE0CF
:10056000328330E13383BDDF348142815F93538135
:100570003CDF5F910083118322830F9300E00383AC
:100580000CE3048388DF0F9130813F9331813F93E7
:1005900030E032833CE33383A4DF348142815F93D4
:1005A000538123DF5F910083118322831F932F9355
:1005B0000F91F7E0E4ECE00FFE1DE00FFE1D15913A
:1005C00025910F910F91F7E0E4ECE00FFE1DE00F95
:1005D000FE1D359145910F910F91F7E0E4ECE00F8E
:1005E000F71FE00FF71F559165910F91EF91FF9164
:1005F0000AE3508361830283338344830583168334
:10060000278300E000871ADD08950BDD4CD000E061
:1006100011E022E033E048E30AD048E008D041E0AE
:1006200006D046E004D04CE002D008DD089505BBBA
:100630004BD025BB49D048BB05BB08954F93ABE7D2
:10064000B0E045914D934423E1F74F9108955F93B6
:1006500050E0F4DFEBE7F0E002D05F9108950F93F4
:100660001F932F933F936F93FF93EF9300E011E05D
:1006700022E033E005BB25BB27D060E8560F58BB0E
:1006800005BB22D04191442331F035BB1DD048BB7E
:1006900015BB1AD0F7CFEF91FF916F913F912F913A
:1006A0001F910F9108951F932F933F931DEF139563
:1006B00039F020E82395D9F330E03395D9F3FDCF15
:1006C0003F912F911F9108951F932F933F931EEFFA
:1006D000139539F020EF2395D9F330E03395D9F312
:1006E000FDCF3F912F911F91089576312E33000059
:1006F00054696D65204C65667400546F74616C209C
:1007000054696D650000427574746F6E2070726577
:10071000737365640000427574746F6E20302070CE
:100720007265737365640000427574746F6E203176
:1007300020707265737365640000427574746F6E27
:1007400020322070726573736564000054696D65B2
:1007500072732061726520776F726B696E6700003B
:10076000427574746F6E20342070726573736564A3
:100770000000427574746F6E20352070726573735B
:1007800065640000427574746F6E20362070726567
:10079000737365640000427574746F6E2037207047
:1007A0007265737365640000436F756E74696E677C
:1007B0002073746F70656400686F75720000686FF5
:1007C0007572730030303031303230333034303580
:1007D00030363037303830393130313131323133F1
:1007E00031343135313631373138313932303231D7
:1007F00032323233323432353236323732383239BD
:1008000033303331333233333334333533363337B4
:10081000333833393430343134323433343434359A
:100820003436343734383439353035313532353380
:100830003534353535363537353835393630363166
:10084000363236333634363536363637363836394C
:06085000526561647900AD
:00000001FF
