:020000020000FC
:0400000039C022C120
:1000080067C066C065C064C063C062C061C060C0CC
:100018005FC0AF91BF910F931F932F933F934F935F
:100028005F936F937F93BF93AF930895AF91BF9101
:100038007F916F915F914F913F912F911F910F91F8
:10004800BF93AF93089502E205BF88950895F0E045
:10005800E0E612812381368147815285638514A3A6
:1000680025A336A347A350A761A7089502E205BFB9
:100078008FEFF82E0FE50DBF02E00EBF00E001BBC9
:100088000FEF02BB00E40BBF0FEF07BB08BB0FEF7E
:1000980004BB002705BB03EC09BF00E00DBD0CBD88
:1000A8000AE70BBD02E10ABD99D2E0E4F7E050E0AF
:1000B800B7D2E0E6F0E001E0A7D003E08DD000E0A1
:1000C80021E033E040E050E07894BDDFFECF0895B2
:1000D8002F9300E023FD27C003E02F912F9327FDE6
:1000E80003E026FD05E025FD06E024FD07E0E0E647
:1000F800F0E050E064E079E07A9521F02BD0E60F4B
:10010800F51FFACFECE6F0E06181662331F46281F5
:10011800662319F46381662319F05ED02F91189530
:100128002F91220F2F9300E00EBDEEEFF7E050E085
:1001380077D22F9118956DDF10812181328143810B
:1001480054816581360F251F141F10832183328344
:100158006DDF08951081218132814381112372F06E
:10016800410F18F4339508F4239521833283438390
:10017800222319F4332309F4442308950F930FEF2E
:10018800410F301F201F2183328343830F91F0CF0B
:1001980040DFC2D11081218113832483E0E6F0E09F
:1001A80010E024E0002321F00A95E20FF11FFACFB6
:1001B80012812381F0E0E4E80F9300810383018139
:1001C800048300E000830F911183228346D119D163
:1001D80050E42ED22BDF08951CDFF0E0E0E610E0BB
:1001E80024E0002321F00A95E20FF11FFACF0181E4
:1001F80012812381F0E0E4E80083118322839ED1F9
:1002080050E416D213DF08954F930F931F93EF9383
:10021800FF931AE001E0019300E001930193019339
:100228001A95C1F7FF91EF910FEF048700E005875A
:100238000AE2068700E307871F910F914F910895FF
:1002480053E060E070E410B313FF08C014FF26C049
:1002580015FF21C016FF1CC017FF72C021FD09D071
:1002680022FD11D023FD0FD020FD01D01895439514
:100278000895E2EAF7E050E0D3D100E00FBD0CE0CA
:100288000EBD24E0089503E0A7DF2F7020680895CD
:100298005A95639576955A956395769521FD41D043
:1002A80022FD44D023FD49D020FD01D01895B1DEB0
:1002B8004F93F0E0E4E7442341F01F9314E0E10F8B
:1002C80008F4F3951F914A95C1F7FF93EF936623BE
:1002D80019F41EE020E108C06A9519F410E02CE337
:1002E80003C06A9510E021E0318142815381F0E03A
:1002F800E0E83083418352830F9300E003830F913A
:100308001483258318DF108121813281EF91FF91B9
:100318001183228333835F9105E0050F5DDF86DE5D
:100328000895052F4AD003E057DF089505E0060F2A
:1003380060E052DF2F70272B0895062F29DF0895DC
:1003480023FD07D022FD19D021FD32D020FD22E067
:1003580018952F93E1D00F931F932F9300E01081EE
:1003680021810083118322832F911F910F91E6D061
:1003780005E050E45DD12F9108952F9327FD1AC011
:1003880026FD00E025FD01E024FD02E0E0E6F0E0C6
:100398001F932F9310E024E0002321F00A95E20F29
:1003A800F11FFACF0083048B2F911F912F9108958D
:1003B800000008952F91220F0895EF93FF932F9334
:1003C8003F934F93ECE6F0E03EE040E15EE060E111
:1003D8000A9519F0350F461FFBCF20E021833283A1
:1003E80043834F913F912F91FF91EF91089520956D
:1003F80010950095250F141F031F20951095009543
:10040800089507DE748185817083818354E010E04C
:100418002AE01283238364D01281238110832183ED
:1004280004810F935A9599F71F912F913F914F91FE
:1004380000E3100F200F300F400F408331830CE290
:1004480002832383148305E2058300E2068307837E
:10045800008700E00187EADD0895DBDD08E2068316
:1004680000E010E020E03381448150E060E070E07B
:1004780080E01F932F933F93108121813281330FA6
:10048800221F111F1083218332833F912F911F91C7
:10049800221F111F001F5F934F933F93542F432F29
:1004A80030E0A5DF3F914F915F919AF008F4839572
:1004B800078306810A9539F006830781880F771F1D
:1004C800661F551FD6CF5083618374838583AEDD45
:1004D80008958F9380E0240F131F081F8F91E8CF92
:1004E80098DD108121813281438150E060E070E025
:1004F80000E1440F331F58F00A9521F0660F551F8D
:10050800771FF7CF52836383748390DD0895620F5A
:10051800511F90F77395F0CF9ADDF0E0E4E879DDAC
:10052800108121813281438154816581240F131FF9
:10053800260F151F1083218379DD08956ADDFF9347
:10054800EF9300811181228130E048E0A32EB42E80
:10055800DE2ECF2EBE0EAF1E4EE050E10CD040E096
:100568005CE309D040E051E006D0EF91FF9100E054
:1005780000875CDD0895EB2DFA2D0083118322831B
:100588000F934383548369DF0F913181F6E0E4EBE5
:10059800E30F08F4F395E30F08F4F3951F932F93F3
:1005A8000F93FF93EF93159125910AE3ED2DFC2D01
:1005B800119321930193CF2EDE2EEF91FF910F918E
:1005C8002F911F91EB2DFA2D4283538389DF3481BC
:1005D80042815F9353810BDF5F9108951ADD44D008
:1005E80000E011E022E033E048E30AD048E008D018
:1005F80041E006D046E004D04CE002D017DD089573
:1006080005BB43D025BB41D048BB05BB08954F93DC
:10061800A4E8B0E045914D934423E1F74F91089544
:100628005F9350E0F4DFE4E8F0E002D05F910895D2
:10063800F0DCFF93EF9300E011E022E033E005BB2C
:1006480025BB23D060E8560F58BB05BB1ED041918F
:10065800442331F035BB19D048BB15BB16D0F7CFB2
:10066800EF91FF91E3DC08951F932F933F931DEFC4
:10067800139539F020E82395D9F330E03395D9F371
:10068800FDCF3F912F911F9108951F932F933F9373
:100698001EEF139539F020EF2395D9F330E0339509
:1006A800D9F3FDCF3F912F911F910895303030310C
:1006B8003032303330343035303630373038303906
:1006C80031303131313231333134313531363137FE
:1006D80031383139323032313232323332343235E4
:1006E80032363237323832393330333133323333CA
:1006F80033343335333633373338333934303431B0
:100708003432343334343435343634373438343995
:10071800353035313532353335343535353635378D
:100728003538353936303631363236333634363573
:10073800363636373638363976312E330000546936
:100748006D65204C65667400546F74616C20546943
:100758006D650000427574746F6E207072657373F6
:1007680065640000427574746F6E20302070726585
:10077800737365640000427574746F6E2031207065
:100788007265737365640000427574746F6E20320D
:100798002070726573736564000054696D657273C7
:1007A8002061726520776F726B696E670000427511
:1007B80074746F6E20342070726573736564000002
:1007C800427574746F6E203520707265737365643A
:1007D8000000427574746F6E2036207072657373F2
:1007E80065640000427574746F6E203720707265FE
:1007F800737365640000436F756E74696E67207368
:10080800746F70656400686F75720000686F757248
:08081800730052656164790070
:00000001FF
