:020000020000FC
:040000003DC045C1F9
:020008006DC0C9
:0200180065C0C1
:02001C0063C0BF
:1000200061C0AF91BF910F931F932F933F934F9355
:100030005F936F937F93BF93AF930895AF91BF91F9
:100040007F916F915F914F913F912F911F910F91F0
:10005000BF93AF93089502E205BF88950895F0E03D
:10006000E0E612812381368147815285638514A39E
:1000700025A336A347A350A761A7089502E205BFB1
:1000800070E08FEFE72EF82E0FE50DBF02E00EBFF8
:1000900000E001BB0FEF02BB00E40BBF0FEF07BB9B
:1000A00008BB0FEF04BB002705BB0FEF09BF00E043
:1000B0000DBD0CBD00E10BBD00E10ABDEDD2E4E0D9
:1000C000F8E050E00BD3E0E6F0E001E0BCD003E064
:1000D000A2D000E021E033E040E050E07894BBDFC4
:1000E000FECF08952F9300E00DBD0CBD23FD23C06E
:1000F00000E10BBD00E10ABD03E02F912F9327FD26
:1001000003E026FD00E025FD01E024FD02E0F0E033
:10011000E0E63DD0F0E0E4E63AD0F0E0E8E637D0C3
:10012000F0E0ECE63FD021F050E075D02F9118952B
:100130002F91220F2F9300E00EBDE2ECF8E050E08B
:10014000CDD22F9118956DDF1081218132814381AD
:1001500054816581360F251F141F1083218332833C
:100160006DDF08955EDF10812181328143815481EA
:10017000658140955095609563955E1D4E1D360FC7
:10018000251F141F10832183328358DF08951081A7
:10019000218132814381410F3E1D2E1D21833283F7
:1001A00043830895108121813281438110951395F5
:1001B000410F3F1D2F1D218332834383222319F4D6
:1001C000332309F4442308952CDF49DFF0E0E4E809
:1001D000EBD11081218113832483E0E6F0E010E06D
:1001E00024E0002321F00A95E20FF11FFACF1281DB
:1001F0002381F0E0E4E80F9300810383018104830D
:1002000000E000830F91118322838CD15FD150E4F1
:100210006DD214DF089505DFF0E0E0E610E024E0A1
:10022000002321F00A95E20FF11FFACF018112811C
:100230002381F0E0E4E8008311832283C6D150E4F7
:1002400055D2FCDE08954F930F931F93EF93FF93C6
:1002500013E001E0019300E00193019301931A95EB
:10026000C1F701E0019300E001930AE2019300E38A
:10027000019316E000E001930193019301931A9515
:10028000C9F7FF91EF911F910F914F91089553E09E
:1002900060E070E410B313FF08C014FF26C015FF20
:1002A00021C016FF1CC017FF70C021FD09D022FD20
:1002B00011D023FD0FD020FD01D01895439508954E
:1002C000E6E6F8E050E00AD200E00FBD05E00EBD22
:1002D00024E0089503E09FDF2F70206808955A9569
:1002E000639576955A956395769521FD40D022FDCC
:1002F00043D023FD47D020FD01D0189592DE4F93C7
:10030000F0E0E4E7442339F01F9314E0E10FFE1D11
:100310001F914A95C9F7FF93EF93662319F41EE0E6
:1003200020E108C06A9519F410E02CE303C06A9537
:1003300010E021E0318142815381F0E0E0E8308338
:10034000418352830F9300E003830F91148325832D
:10035000FADE108121813281EF91FF911183228396
:1003600033835F9105E0050F56DF68DE0895052FA2
:100370004DD003E050DF0895062F60E04CDF2F7072
:10038000272B0895062F20DF089523FD07D022FD97
:100390001ED021FD36D020FD18D018952F935FDE9A
:1003A000E4E8F0E001D10F931F932F9300E0108158
:1003B00021810083118322832F911F910F9105D1F9
:1003C00005E050E493D12F91089522E008952F93F2
:1003D00027FD19C026FD00E025FD01E024FD02E017
:1003E000E0E6F0E01F932F9310E024E0002321F0DB
:1003F0000A95E20FF11FFACF00832F911F912F91E1
:100400000895000008952F91220F0895EF93FF9310
:100410002F933F934F93ECE6F0E03EE040E15EE047
:1004200060E10A9519F0350F461FFBCF20E02183CC
:10043000328343834F913F912F91FF91EF91089524
:100440003F934F934F0D3F1D40953095240F131F41
:100450004F913F9108953F934F938F9380E04F0DBD
:100460003F1D8F1D409530958095240F131F081F49
:100470008F914F913F9108953F934F935F935F0DFD
:100480004F1D3F1D509540953095250F141F031F9C
:100490005F914F913F910895240F131F08958F93FB
:1004A00080E0240F131F081F8F9108951F932F932F
:1004B0003F93108121813281330F221F111F10833E
:1004C000218332833F912F911F910895AADD74817A
:1004D00085817083818354E010E02AE012832383B6
:1004E00047D0128123811083218304810F935A9571
:1004F00099F71F912F913F914F9100E3100F200F1B
:10050000300F400F408331830CE202832383148336
:1005100005E2058300E206830783008700E0018788
:100520008DDD08957EDD08E2068300E010E020E026
:100530003381448150E060E070E080E0B7DF221F4B
:10054000111F001F88DF90F48E1D078306810A9516
:1005500039F006830781880F771F661F551FEECF7E
:10056000508361837483858369DD089598DFEDCFBF
:1005700058DD108121813281438150E060E070E0DC
:1005800000E1440F331F58F00A9521F0660F551F04
:10059000771FF7CF52836383748350DD0895620F12
:1005A000511F90F77395F0CF3CDD1081218132818E
:1005B000438154816581240F131F260F151F10835B
:1005C00021833CDD0895089508952BDDFF93EF937B
:1005D0000081118122810F930EE0038300E10483E7
:1005E000A1DF0F9130813F9331813F933EE0328311
:1005F00030E13383BDDF348142815F9353813CDF3F
:100600005F910083118322830F9300E003830CE347
:10061000048388DF0F9130813F9331813F9330E035
:1006200032833CE33383A4DF348142815F9353817F
:1006300023DF5F910083118322831F932F930F91F8
:10064000F7E0E8E7E00FFE1DE00FFE1D1591259194
:100650000F910F91F7E0E8E7E00FFE1DE00FFE1DA0
:10066000359145910F910F91F7E0E8E7E00FFE1DFE
:10067000E00FFE1D559165910F91EF91FF910AE3F7
:1006800050836183028333834483058316832783E6
:1006900000E00087D3DC0895C4DC4CD000E011E01A
:1006A00022E033E048E30AD048E008D041E006D039
:1006B00046E004D04CE002D0C1DC089505BB4BD02D
:1006C00025BB49D048BB05BB08954F93A4E8B0E0D3
:1006D00045914D934423E1F74F9108955F9350E086
:1006E000F4DFE4E8F0E002D05F9108950F931F93E8
:1006F0002F933F936F93FF93EF9300E011E022E07D
:1007000033E005BB25BB27D060E8560F58BB05BBBF
:1007100022D04191442331F035BB1DD048BB15BBDD
:100720001AD0F7CFEF91FF916F913F912F911F91C9
:100730000F9108951F932F933F931DEF139539F059
:1007400020E82395D9F330E03395D9F3FDCF3F91DD
:100750002F911F9108951F932F933F931EEF139591
:1007600039F020EF2395D9F330E03395D9F3FDCF5D
:100770003F912F911F910895303030313032303316
:10078000303430353036303730383039313031313F
:100790003132313331343135313631373138313925
:1007A000323032313232323332343235323632371D
:1007B0003238323933303331333233333334333503
:1007C00033363337333833393430343134323433E9
:1007D00034343435343634373438343935303531CF
:1007E00035323533353435353536353735383539B5
:1007F00036303631363236333634363536363637AD
:100800003638363976312E33000054696D65204C08
:1008100065667400546F74616C2054696D650000E6
:10082000427574746F6E2070726573736564000036
:10083000427574746F6E20302070726573736564D6
:100840000000427574746F6E20312070726573738E
:1008500065640000427574746F6E2032207072659A
:1008600073736564000054696D657273206172650D
:1008700020776F726B696E670000427574746F6EDB
:10088000203420707265737365640000427574745F
:100890006F6E203520707265737365640000427559
:1008A00074746F6E20362070726573736564000017
:1008B000427574746F6E203720707265737365644F
:1008C0000000436F756E74696E672073746F706596
:1008D0006400686F75720000686F7572730052650E
:0408E00061647900D6
:00000001FF
